:100000000C948C020C94A9020C94A9020C94411734
:100010000C94A9020C9465170C9437180C94A9023F
:100020000C94A9020C94A9020C94A9020C94A902A4
:100030000C94A9020C9401030C94A9020C94A9023B
:100040000C9430040C94A9020C94A9020C94A902FB
:100050000C94A9020C94A9020C94A9020C944B03D1
:100060000C94A9020C94A902BD0F5611A911C41138
:10007000EB1163128D12D91211134B1374139E13CB
:10008000D113D113D113D113D1138214BC14F3148F
:10009000381572159715302E332E332E3137005602
:1000A0003A253033752C2530327520503A253035BD
:1000B000750A4E3A2534756D5620523A2533752C03
:1000C00025303175002533752C25303175206B4F67
:1000D000686D2020202020200025327520732020EC
:1000E00020202020202020202020004368796261E9
:1000F00020686F646E6F7479210A25752E2025752E
:10010000203C3D2025752E20257500506F757A699D
:10011000742070726F206E6164727A0A4553433D99
:100120004E45202020204F4B3D414E4F000A2020BD
:100130004E65706F757A6976616E6F2020000A25B2
:100140003375204C2C253475206D560025337520D1
:100150004C20202020202020202020200025347525
:1001600020696D702F3130306D20202000253375CF
:100170002C253031752063636D2F6D696E20202032
:100180000043656C6B656D3A2534752C25303175EF
:100190004C0A4E616A65746F3A2025376C750054BD
:1001A00065706C6F74613A20252033692C253031DD
:1001B00075200020252033692C2530317520202022
:1001C000252033692C253031752000412E56796A5F
:1001D00065746F3A2533752C25303175204C0A0033
:1001E0004E61706574693A2535752C25303175205E
:1001F000560A527963686C6F73743A25336C752CA8
:100200002530316C75004E6164727A203A2537755D
:10021000204C0A446F6A657A643A253775200025B8
:1002200034752C25303175204C0025356C752C2506
:1002300030316C750054726173613A2535752C2527
:100240003031754C002535752C25303175204C002A
:100250002535752C25303175205600202520336931
:100260002C253031752020002532752C2530317534
:100270005625203369002520336920202520336945
:100280000020443A202534750025346C752C253027
:10029000316C7500413A2532752C253031754C682A
:1002A000202532752C253031754C00413A253275A8
:1002B0002C25303175202F202532752C25303175B5
:1002C0004C00020408100609090616151500010263
:1002D000040802040E010F110F000A041F02040893
:1002E0001F000A0C0A001A1515001C141C001E150C
:1002F0001500171517000506050018180609080946
:10030000060020204175746F6D617469636B7920FC
:10031000202000202056796A657465206C6974720B
:100320007920200020202020204E617065746920F3
:100330002020202000202020205465706C6F7461E4
:100340002020202020002020204F6265207465702E
:100350006C6F74792020002020202020446F6A6573
:100360007A64202020202000566F6C6261207A6F12
:100370006272617A656E6920004B616C69622E2041
:100380006E61702E20736974650050726F646C65C5
:100390007661207679706E757469002020646574CA
:1003A000656B636520696D702E20200020207374BA
:1003B000616E646172646E69202020200052657A4B
:1003C000696D206E6164727A653A202020004F6268
:1003D00065206369646C6120202020202020004378
:1003E00069646C6F20632E322020202020202000A2
:1003F0004369646C6F20632E312020202020202050
:10040000005A61646E65206369646C6F202020204F
:1004100020005465706C6F746E69206369646C6150
:100420003A20004D6572696D0056796D617A616E92
:100430006F21004B6F6D706C65746E69207265730F
:1004400065743F0A4553433D4E45202020204F4BC5
:100450003D414E4F005A6D65726974206E61706542
:1004600074693F0A4553433D4E45202020204F4BA1
:100470003D414E4F00202056737472696B6F766158
:1004800063753A00456469746163650043656C6B2C
:100490006F7679207265736574205050004F626AE0
:1004A000656D2070616C2E206E6164727A004B6104
:1004B0006C69622E206E6164727A204C2575004D45
:1004C0006574727920206B6F6E7374616E74610055
:1004D00056737472696B2E6B6F6E7374616E746198
:1004E000002020202020202020202020202020202C
:1004F0002000202020204E6173746176656E692093
:10050000202000762E0050616C75626E6920706F3D
:10051000636974616320000011241FBECFEFD8E02F
:10052000DEBFCDBF11E0A0E0B1E0E2E5FBE302C039
:1005300005900D92A234B107D9F721E0A2E4B1E011
:1005400001C01D92A83DB207E1F70E9400160C946D
:10055000A71D0C9400008F3F69F090917A0096FDE2
:10056000FCCF982F906C90937C0095EC90937A0040
:100570008093000108959091000198130CC0809120
:100580007A0084FFFCCF8FEF809300018091780088
:1005900090917900089580E090EF089584B1887F6C
:1005A00084B9579885B1876085B95F9A0895CF93CC
:1005B000DF93DAE0C0E093B189B1909597708095B0
:1005C0008078982BC92B85E090E00E94B40BD15025
:1005D00091F7CC2391F061E0809142010E94A11833
:1005E000882339F00E949E1880934201C0936801CD
:1005F00004C0809168018095C8238C2FDF91CF9132
:1006000008951F920F920FB60F9211248F9380912D
:100610004C018F5F80934C018F910F900FBE0F9014
:100620001F901895539A5B98E1EBF0E01082A2EBD3
:10063000B0E01C921C92A3EBB0E08FE48C938C93FF
:1006400082E18093B00081E08083089510BE109213
:100650007A0085E080937C00EBE7F0E080818064A5
:10066000808382E080BFEFE7F0E08081816080835B
:1006700080B7886080BF089510BEEBE7F0E080810E
:100680008F7B808380B7806880BFEFE7F0E0808158
:100690008160808308951F920F920FB60F921124EC
:1006A0002F933F934F935F936F937F938F939F937A
:1006B000AF93BF93CF93EF93FF930E943C0385E0EA
:1006C0000E94AB0285E00E94BB02E0914A01F0E08B
:1006D000EE0FFF1FE759FE4F11821082CAE085E03E
:1006E0000E94AB0285E00E94BB0240914A01E42FC8
:1006F000F0E0EE0FFF1FE759FE4F208131812817F0
:10070000390710F491838083C15049F781E0840F49
:100710008F3019F080934A0105C010924A0181E0A0
:1007200080934B0181E080934501FF91EF91CF9140
:10073000BF91AF919F918F917F916F915F914F91F9
:100740003F912F910F900FBE0F901F901895CF9350
:10075000DF9365E0809148010E94A118882319F178
:1007600000B607FC08C08091B701813021F40E94D7
:100770003C03C1E001C0C0E00E949E188093480184
:1007800084E00E94AB0284E00E94BB0284E00E94ED
:10079000AB0284E00E94BB02909347018093460124
:1007A000C1110E9426038091B701811130C065E01C
:1007B000809149010E94A118882309F440C00E9439
:1007C0009E188093490185E00E94AB0285E00E945B
:1007D000BB0285E00E94AB02C0914A0181E08C0F10
:1007E00080934A01D0E085E00E94BB02FE01EE0F3B
:1007F000FF1FE759FE4F9183808380914A018F301C
:10080000F1F410924A0181E080934B0118C080916D
:100810004501882331F00E949E188093490110926F
:10082000450165E0809149010E94A118882339F0B3
:1008300000B607FE04C0DF91CF910C942603DF9130
:10084000CF91089510924A0110924B018091B70107
:10085000813011F40C942603089580914B01089582
:100860001F920F920FB60F9211248F938091440123
:100870008F5F809344018F910F900FBE0F901F9058
:100880001895AF92BF92CF92DF92EF92FF920F93A3
:100890001F93CF93DF938091840090918500A0E017
:1008A000B0E080934F0190935001A0935101B09319
:1008B000520140914F01509150016091510170914E
:1008C000520180914C0190E0A0E0B0E0DC0199275A
:1008D0008827840F951FA61FB71F80934F01909301
:1008E0005001A0935101B093520180914F0190911A
:1008F0005001A0915101B0915201B695A7959795DD
:10090000879580934F0190935001A0935101B0932C
:100910005201109285001092840010924C0186B50D
:1009200080934E0116BC8091440180934D0110923A
:10093000440180914E0181111FC080914D018111B0
:100940001BC080914F0190915001A0915101B09135
:10095000520180329E44A105B10508F0F7C0809194
:100960004F0190915001A0915101B0915201892BFA
:100970008A2B8B2B09F4EAC080914F019091500192
:10098000A0915101B09152019C01AD0160E070E075
:1009900080E090E0A0908801B0908901C0908A0129
:1009A000D0908B01E0908C01F0908D0100918E0130
:1009B00010918F010E94531A20938801309389016E
:1009C00040938A0150938B0160938C0170938D0149
:1009D00080938E0190938F0180914F0190915001EF
:1009E000A0915101B09152019C01AD0160E070E015
:1009F00080E090E0A0909001B0909101C0909201B1
:100A0000D0909301E0909401F090950100919601AF
:100A1000109197010E94531A2093900130939101F5
:100A200040939201509393016093940170939501C8
:100A3000809396019093970180914F01909150017E
:100A4000A0915101B09152019C01AD0160E070E0B4
:100A500080E090E0A0909801B0909901C0909A0138
:100A6000D0909B01E0909C01F0909D0100919E012F
:100A700010919F010E94531A20939801309399017D
:100A800040939A0150939B0160939C0170939D0148
:100A900080939E0190939F0180914D01882331F0B6
:100AA00020914D0130E0322F222702C020E030E0BB
:100AB00080914E01A901480F511D8091A001909194
:100AC000A101A091A201B091A301840F951FA11DC6
:100AD000B11D8093A0019093A101A093A201B093B6
:100AE000A30180914E01A901480F511D8091A401DD
:100AF0009091A501A091A601B091A701840F951F27
:100B0000A11DB11D8093A4019093A501A093A601FE
:100B1000B093A70180914E01280F311D8091A8014B
:100B20009091A901A091AA01B091AB01820F931FEE
:100B3000A11DB11D8093A8019093A901A093AA01C2
:100B4000B093AB0181E0809343010EC0109243014A
:100B500010924F01109250011092510110925201C7
:100B600010924E0110924D01DF91CF911F910F9184
:100B7000FF90EF90DF90CF90BF90AF9008959C01D1
:100B8000A8EFBAE20E943D199B01AC01AAE056957C
:100B9000479537952795AA95D1F7A4E7B0E00E942D
:100BA0004C1924EB30E040E050E00E94F618C901F7
:100BB00008950F931F93CF93DF93CDB7DEB76E9752
:100BC0000FB6F894DEBF0FBECDBF80916901909142
:100BD0006A0180914B01813021F010914A011F5F21
:100BE00001C01FE08091B701813041F400B603FEDF
:100BF00005C080B7877F80BF01E001C000E0412FC2
:100C000050E0440F551F69E671E0CE0101960E9445
:100C1000711A80E0811709F151E0580F452FFE014C
:100C20003196E80FF11DE80FF11D4117A1F0808109
:100C30009181DE011196A40FB11DA40FB11D2D915C
:100C40003C9111972817390720F4318320838D9325
:100C50009C934F5FEACF852FDDCF002319F080B73B
:100C6000886080BF1695FE013196E10FF11DE10FFE
:100C7000F11D808191816E960FB6F894DEBF0FBE94
:100C8000CDBFDF91CF911F910F910C94BF052091A3
:100C9000460130914701ACE4B4E00E943D199B014C
:100CA000AC018AE056954795379527958A95D1F7F7
:100CB000A091CE01B091CF019F960E944C192FE2D6
:100CC00030E040E050E00E94F618C90108954F92CC
:100CD0005F926F927F928F929F92AF92BF92CF92CC
:100CE000DF92EF92FF92CF93DF93CDB7DEB72897D5
:100CF0000FB6F894DEBF0FBECDBF0E94D9059C0190
:100D000040E050E029833A834B835C83E8EBF1E0D9
:100D100080E090E0282F3081343571F48280938018
:100D2000A12CB12C49815A816B817C8148155905D0
:100D30006A057B050CF4A4C00196349685309105B4
:100D400049F7E8ECF1E024E08081843521F021507E
:100D500034972111F9CF54E0259FF0011124E95770
:100D6000FE4F82A990E0A0E0B0E083A894A8A12C57
:100D7000B12C215051F064E0269FF0011124E95775
:100D8000FE4F31A93435A9F705C02091B8012435AB
:100D900009F0C1C0412C512C3201C12CD12C76015B
:100DA0009C01AD012C193D094E095F09A0E1B7E294
:100DB0000E944C19A50194012419350946095709C7
:100DC0000E9418192D833E834F83588769817A8149
:100DD0008B819C810E94BE184B015C01A0E1B7E2AF
:100DE000A70196010E944C196B017C01A30192019D
:100DF0006D817E818F8198850E94BE18C61AD70AA0
:100E0000E80AF90A8C0C9D1CAE1CBF1CC501B4017C
:100E100028EE33E040E050E00E94181969017A01A1
:100E200057FD13C0CA01B9012AE030E040E050E0AC
:100E30000E94181965307105810591054CF04AE052
:100E4000C40ED11CE11CF11C03C0C12CD12C7601B5
:100E5000C701B6012AE030E040E050E00E941819D6
:100E6000C090B001D12CE12CF12CC901DA01C816D7
:100E7000D906EA06FB060CF04FC0D701C6014CC0EC
:100E8000FC01EE0FFF1FEE0FFF1FE957FE4F82A977
:100E900090E0A0E0B0E0222319F16FEF620F66232B
:100EA00061F074E0679FA001112449575E4FFA0179
:100EB00031A9343531F06150F2CF3091B801343579
:100EC00079F424E0629FF0011124E957FE4FC2A893
:100ED000D12CE12CF12C43A854A8612C712C60CFAB
:100EE0002F5F2530C1F034E0239FF0011124E95732
:100EF000FE4F31A93435A1F742A923A934A9240111
:100F000035014901A12CB12C6C017D01842F90E0A9
:100F1000A0E0B0E045CF80E028960FB6F894DEBFA1
:100F20000FBECDBFDF91CF91FF90EF90DF90CF90BC
:100F3000BF90AF909F908F907F906F905F904F90F9
:100F400008952F923F924F925F926F927F928F926D
:100F50009F92AF92BF92CF92DF92EF92FF920F9348
:100F60001F93CF93DF93CDB7DEB728970FB6F894D2
:100F7000DEBF0FBECDBFFC01408051806280738018
:100F8000848095808681888787818F839201A301E1
:100F9000B40188859F81A0E00E94651A09F447C0CA
:100FA0006091AE017091AF016115710509F43FC008
:100FB0002091CC012223D9F180E090E030E040E0A4
:100FC00050E00E94B019190149835A836B837C83D6
:100FD0008D839E832CE3A22EB12CC12CD12CE12C2D
:100FE000F12C00E010E09201A301B40188859F81FB
:100FF0000E94DD1959016A017B018C01910149812F
:101000005A816B817C818D819E810E945719E0E815
:10101000AE2EF0EFBF2EAAEFCA2EB2E0DB2EE12CEF
:10102000F12C00E010E00E94DD19C90102C080E04F
:1010300090E028960FB6F894DEBF0FBECDBFDF91CB
:10104000CF911F910F91FF90EF90DF90CF90BF90C5
:10105000AF909F908F907F906F905F904F903F9058
:101060002F90089588E891E00C94A10780E991E021
:101070000C94A1074BE450E060E070E087E891E059
:101080000C949A1C80E090E00E94921C843509F434
:101090008AC088EC90E00E94B40B80E090E00E944F
:1010A000921C843509F47FC084E5809387011092F7
:1010B00088011092890110928A0110928B0110927E
:1010C0008C0110928D0110928E0110928F0110925E
:1010D000900110929101109292011092930110923E
:1010E000940110929501109296011092970110921E
:1010F00098011092990110929A0110929B011092FE
:101100009C0110929D0110929E0110929F011092DD
:10111000A0011092A1011092A2011092A3011092BD
:10112000A4011092A5011092A6011092A70110929D
:10113000A8011092A9011092AA011092AB0180E9B6
:1011400091E09093AD018093AC0183EC93E0909398
:10115000AF018093AE0184E08093CC011092B00186
:101160001092B2011092B1011092B4011092B30129
:101170001092B6011092B501E9EBF1E0DF01119791
:101180001C92128211821082349681E0ED3CF807A5
:10119000A9F71092B70187EE93E09093CF01809367
:1011A000CE010E943A084BE450E060E070E087E82E
:1011B00091E00E94821C0E941203109285001092FE
:1011C000840086E08093810054985C9A81E080934B
:1011D0006F0016BC97E095BD80936E008091B701BB
:1011E000813019F40E94260302C00E943C038091C2
:1011F000CD0181508C3318F08EE18093CD01809128
:10120000D001863018F084E08093D001789408955E
:10121000CF92DF92EF92FF92C090AC01D090AD01DF
:10122000C114D10451F1FC016081718182819381EB
:10123000611571058105910501F1E12CF12C6038F2
:10124000FEED7F07F0E88F07F2E09F0768F4A4E661
:10125000B0E09B01AC010E944C19A70196010E94CD
:10126000F618CA01B9010CC0A70196010E94F61830
:10127000A4E6B0E00E944C1903C060E070E0CB012E
:10128000FF90EF90DF90CF9008954F925F926F9212
:101290007F928F929F92AF92BF92CF92DF92EF9206
:1012A000FF920F931F93CF93DF93CDB7DEB72C97A9
:1012B0000FB6F894DEBF0FBECDBF2C01FB01DC01E1
:1012C0004D915D916D917C914430510561057105A1
:1012D00008F451C0A080B180C280D380E480F58042
:1012E000068117819501A601B701C801A0E00E94FF
:1012F000651A09F440C06091AE017091AF016115AB
:101300007105C9F12091CC012223A9F180E090E080
:1013100030E040E050E00E94B0190E9457193B01B4
:101320004C01C20129833A834B835C830E940809E4
:101330005B016C01E12CF12C87016D83BE82CF82B1
:10134000D886E986FA860B871C87E12CF12C00E011
:1013500010E029813A814B815C81B301C4010E9474
:10136000DD19E0E3AE2EF5E7BF2EC12CD12C0E9493
:10137000DD19C90102C080E090E02C960FB6F89408
:10138000DEBF0FBECDBFDF91CF911F910F91FF90B8
:10139000EF90DF90CF90BF90AF909F908F907F9015
:1013A0006F905F904F9008952F923F924F925F926F
:1013B0006F927F928F929F92AF92BF92CF92DF9265
:1013C000EF92FF920F931F93CF93DF9380914F0182
:1013D00090915001A0915101B0915201892B8A2B1B
:1013E0008B2BC1F12091CC012223A1F1C091AE0140
:1013F000D091AF01209771F160914F017091500130
:10140000809151019091520130E040E050E00E9403
:10141000B01959016A017B01E82F192F02E00E94DF
:101420003A1A0E2F0E945C1AAAEFAA2EB12CC12CD8
:10143000D12CE12CF12C00E010E00E94DD195E01BE
:101440000E945719B0E1AB2EC7E2BC2E0E94DD19F5
:10145000C90102C080E090E0DF91CF911F910F9110
:10146000FF90EF90DF90CF90BF90AF909F908F90C4
:101470007F906F905F904F903F902F900895809154
:101480004F0190915001A0915101B09152010895E6
:1014900020914E0180914D0190E0982F8827820F76
:1014A000911D08950F931F93CF93DF93CDB7DEB7B0
:1014B0002C970FB6F894DEBF0FBECDBF00914F0141
:1014C00010915001209151013091520109831A83EA
:1014D0002B833C831D821E821F8218860E94480A2D
:1014E000A0E0B0E089879A87AB87BC87BE016F5FB9
:1014F0007F4FCE0109960E9445092C960FB6F894AD
:10150000DEBF0FBECDBFDF91CF911F910F91089528
:101510000C94D40968E871E080EA91E00C944509E4
:10152000CF930E948A0A892B99F00E946706C82FE0
:101530000E948A0ABC0124E6C29FC00111240E94B5
:10154000CE182AE0269FC001279F900D112402C0CB
:1015500080E090E0CF91089560E971E084EA91E045
:101560000C94450968E971E088EA91E00C9445091A
:1015700080EA91E00C94080984EA91E00C9408094F
:1015800088EA91E00C940809CF93DF9300D000D053
:10159000CDB7DEB70E94480AA0E0B0E089839A8305
:1015A000AB83BC83CE0101960E9408090F900F9077
:1015B0000F900F90DF91CF9108958091430108958E
:1015C0008091AC019091AD0108958091AE01909110
:1015D000AF0108959093AD018093AC01089590936D
:1015E000AF018093AE0108958091CC01089580935E
:1015F000CC010895853040F494E0899FF0011124D6
:10160000E957FE4F82A9089580E00895853048F497
:1016100094E0899FF0011124E957FE4F83A994A912
:10162000089580E090E00895853040F494E0899F2B
:10163000F0011124E957FE4F81A9089580E0089533
:10164000853038F494E0899FF0011124E957FE4F6A
:1016500062AB0895853040F494E0899FF001112435
:10166000E957FE4F74AB63AB0895853038F494E0CE
:10167000899FF0011124E957FE4F61AB08958091D5
:10168000B00108958093B001089560E080E090E09B
:101690000C94AA1CF894E8E8F1E0108211821282FE
:1016A000138214821582168217821092A001109262
:1016B000A1011092A2011092A30178940895F894C8
:1016C000E0E9F1E010821182128213821482158205
:1016D000168217821092A4011092A5011092A60101
:1016E0001092A701789408958091B701089580938E
:1016F000B701813011F40C9426030C943C030E9432
:10170000480A9C01A0E1BEE00E943D192091AC0175
:101710003091AD0140E050E00E94F618C9010895F3
:101720008091CE019091CF0108959093CF01809345
:10173000CE0108958091CD0108958093CD01089543
:101740008093D00108958091D001089561E08AE4EA
:1017500090E00C94BC1C60E08AE490E00C94BC1C0B
:101760008AE490E00C94921C4F935F9344E15FEF06
:101770005A95F1F74A95D9F78A95C1F79A95B2F734
:101780005F914F9108954F9342E04A950000000009
:10179000E1F78A950000C1F79A950000AAF74F91EA
:1017A0000895CF93DF93C82F9BB121E030E001C0B3
:1017B000220F8A95EAF7D22FD0959D239BB99AB133
:1017C000922B9AB984EF91E00E94C30B9AB19D23AA
:1017D0009AB986E490E00E94C30B29B130E002C0C0
:1017E00035952795CA95E2F720FD06C08AE991E074
:1017F000DF91CF910C94C30BDF91CF910895882393
:1018000071F02BB181E090E0062E01C0880F0A94A0
:10181000EAF7282B2BB99AB1982B9AB908952AB1D7
:1018200081E090E0062E01C0880F0A94EAF78095C7
:1018300028232AB99BB198239BB90895DF92EF9290
:10184000FF920F931F93CF93DF931F92CDB7DEB715
:1018500089838BB101E010E0062E01C0000F0A94CD
:10186000EAF7D02ED0948D218BB9E12CF12C89810F
:1018700090E00E2C02C0959587950A94E2F780FFC0
:101880000DC08AB1802B8AB986E090E00E94C30B1C
:101890008AB18D218AB980E490E00CC08AB1802B96
:1018A0008AB98CE390E00E94C30B8AB18D218AB97A
:1018B0008AE090E00E94C30B8FEFE81AF80A88E0F4
:1018C000E816F104A1F60F90DF91CF911F910F91CF
:1018D000FF90EF90DF900895BF92CF92DF92EF924A
:1018E000FF920F931F93CF93DF93EC01198218821D
:1018F0008BB101E010E002C0000F111F6A95E2F702
:10190000B02EB0948B218BB9E12CF12CCC24C39454
:10191000D12C8AB1802B8AB986E090E00E94C30B5B
:101920008AB18B218AB989E090E00E94C30B89B10A
:1019300090E080239123892B69F088819981960119
:101940000E2C02C0220F331F0A94E2F7822B932B36
:101950009983888387E390E00E94C30B8FEFE81A96
:10196000F80A80E1E816F104A1F62881398145E002
:10197000429FC001439F900D112497FD079623E0DD
:10198000959587952A95E1F799838883DF91CF9183
:101990001F910F91FF90EF90DF90CF90BF9008952F
:1019A00083FF02C0439A01C0439882FF02C0429A5B
:1019B00001C0429881FF02C0419A01C0419880FF56
:1019C00002C0409A08954098089587FF02C0439A44
:1019D00001C0439886FF02C0429A01C0429885FF29
:1019E00002C0419A01C0419884FF02C0409A089504
:1019F000409808958AE090E00E94C30B2D9A8AE0F7
:101A000090E00E94C30B2D980895CF93DF93C82FC9
:101A1000D62F3B9A3A9A399A389A0E94E50CDD23E0
:101A200011F02B9A01C02B982C980E94FA0C8C2F45
:101A30000E94D00CDD2311F02B9A01C02B982C981A
:101A40000E94FA0C3B983A9839983898DF91CF91D8
:101A500008950F931F93CF93DF933B983A9839984B
:101A60003898882311F02B9A01C02B982C9A2D9A24
:101A70008AE090E00E94C30B339B02C000E801C0E3
:101A800000E0329B02C010E401C010E0319B02C0B4
:101A9000D0E201C0D0E0309B02C0C0E101C0C0E094
:101AA0002D988AE090E00E94C30B2D9A8AE090E086
:101AB0000E94C30B36B186B126B196B12D988470C1
:101AC0003870832B2270822B9170892B802B812B75
:101AD0008D2B8C2BDF91CF911F910F91089580E07A
:101AE0000E94290D87FDFBCF0895CF93C82F0E9438
:101AF0006F0D60E08C2FCF910C94050D611102C029
:101B0000805801C080540C94750D81E00C94750DC3
:101B1000CF93C82F0E946F0D8093550161E08C2FE9
:101B20000E94050D80915501CF910895CF93C82F44
:101B300080915401803158F480915301882339F009
:101B4000CA3029F01092530180EC0E94750D8091EB
:101B50005401813150F080915301882331F0CA3013
:101B600021F0109253010E94850D80915401803123
:101B700019F480EC0E94750D80915401803511F4A8
:101B80000E94850DCA3021F481E08093530107C083
:101B9000CC2329F08C2F0E94880D8093540180E083
:101BA00090E0CF910895CF93C82F3B9A3A9A399AF3
:101BB000389A239A249A259A83E390E00E94B40BE2
:101BC00088E30E94E50C0E94FA0C87E090E00E94F6
:101BD000B40B88E30E94E50C0E94FA0C87E090E0C9
:101BE0000E94B40B88E30E94E50C0E94FA0C87E087
:101BF00090E00E94B40B88E20E94E50C0E94FA0C6F
:101C000088E20E94750D88E00E94750D0E94850D86
:101C100086E00E94750D8C2FCF910C94750D0F935B
:101C20001F93CF93DF938C01660F660F660F6F775C
:101C3000862F80640E94750DC0E0D0E0F801EC0FA3
:101C4000FD1F84910E94880D2196C830D105B1F7FF
:101C5000DF91CF911F910F91089590915C018917A9
:101C600020F4915090935C01089560935C01089575
:101C700090915C01961720F49F5F90935C0108950A
:101C800080935C0108952F923F924F925F926F92E2
:101C90007F928F929F92AF92BF92CF92DF92EF92FC
:101CA000FF920F931F93CF93DF934C01E62EA42E48
:101CB00029010E94D702382E8AE0A89E60011124D3
:101CC000C82DD92DBB24B394F12CEA0CF11C22248D
:101CD00023942A0C87E0782E672C6A188CE00E94E7
:101CE000750D37FC8EC030FE07C08B2D90E08E1531
:101CF0009F0509F487C0B39441E050E021E030E053
:101D00006B2D70E04617570750F4AAE0C901A89F51
:101D10009001A99F300D11244F5F5F4FF3CF31FE2B
:101D200005C0C217D30710F0C21BD30B32FE08C088
:101D3000C201821B930B8C179D0710F0C20FD31F9B
:101D4000CC16DD0658F4CE01312C33946AE070E0F5
:101D50000E94CE18CB010097C1F701C0322C0E941F
:101D6000850D60E080E00E947E0DA4E8B4E0BF93A2
:101D7000AF930E948E1A61E0862D83190E947E0D1A
:101D80000F900F90AA20E9F01F930F93CE01B60198
:101D90000E94CE189F938F937F936F93A1E0B1E041
:101DA000BF93AF930E947A1A8DB79EB708960FB66D
:101DB000F8949EBF0FBE8DBFAB1498F461E0862DE2
:101DC00012C01F930F93DF93CF93A4E0B1E0BF93B2
:101DD000AF930E947A1A0F900F900F900F900F9070
:101DE0000F9061E0872D8B190E947E0D8EE00E947E
:101DF000750D0E94D702382E84E690E00E94B40B45
:101E00006DCFE401CE01DF91CF911F910F91FF9033
:101E1000EF90DF90CF90BF90AF909F908F907F908A
:101E20006F905F904F903F902F900895CF93DF93E6
:101E3000EC0188EC90E00E94B40B0E94850D25E532
:101E400034E03F932F930E948E1A0F900F900E94C0
:101E5000D70280FD06C087FFFACFCE01DF91CF9178
:101E600008950E9422040E94850D83E294E09F93CE
:101E70008F930E948E1A0F900F900E94A7030E94CA
:101E80002D048823D1F3DF91CF910C94D9057F9253
:101E90008F929F92AF92BF92CF92DF92EF92FF927A
:101EA0000F931F93CF93DF931F92CDB7DEB70E949E
:101EB000D702882E882321F081E080935B0102C045
:101EC00010925B0180915C01843608F03AC381FE78
:101ED00004C066E080E00E942D0E82FE05C066E030
:101EE00080E00E94380E0FC021E082120CC0809169
:101EF0005C01813041F4809159018F5F80935901D9
:101F00001092580109C080915901882329F08091CD
:101F100058018F5F8093580180915801843121F4DA
:101F20001092580110925901809159018A3021F480
:101F30000E945F0B1092590160E080E00E947E0DCC
:101F40000E9447069C0164E670E00E94CE188997C3
:101F500010F02C593F4FC90164E670E00E94CE1882
:101F60007B0140915C0150E04730510508F0E9C227
:101F7000FA01EC5CFF4F0C9437190E948A0AD82EA4
:101F8000C92E0E94B80A643671058105910548F092
:101F90000D2D1C2D083E33E0130728F007EE13E04B
:101FA00002C000E010E00E94C40A6530710581059E
:101FB0009105F0F00E94520A9C01283E83E0380708
:101FC00010F027EE33E0EAE0F0E0C801BF010E9424
:101FD000CE189F938F937F936F93C901BF010E9487
:101FE000CE189F938F937F936F938BEA92E01DC0DF
:101FF0000E94880A9C01883EF3E09F0710F027EEBC
:1020000033E0EAE0F0E0C801BF010E94CE189F93E0
:102010008F937F936F93C901BF010E94CE189F9346
:102020008F937F936F9384E992E09F938F930E94A5
:102030008E1A0FB6F894DEBF0FBECDBF81E00E94AE
:10204000880D82E00E94880D61E080E00E947E0D94
:102050000E94B80A24E630E040E050E00E94F61802
:10206000CA01B9012AE030E040E050E00E94F618D1
:102070009F938F937F936F935F934F933F932F9390
:1020800089E892E09F938F930E948E1A83E00E94CA
:10209000880D0E94A30B0FB6F894DEBF0FBECDBF14
:1020A000853009F045C060E1809157010E94A11878
:1020B000882309F447C00E94C517182F8091560144
:1020C0008F5F80935601811109C00E9467068111BC
:1020D00005C0809156018F5F809356018091560113
:1020E000813029F4133019F082E0809356018091F9
:1020F0005601823039F4112311F0133019F483E0C2
:102100008093560180915601833039F4112329F0D0
:10211000133019F084E08093560180915601853088
:1021200010F0109256010E949E18809357010AC029
:102130000E94A30B853018F40E94A30B01C084E019
:102140008093560180915601823009F451C058F5B0
:102150008823E1F1813009F0F4C10E9497178C01C6
:102160000E949C17FC012AE030E0C801B9010E94DE
:10217000E2187F936F93CF01B9010E94E2187F9319
:102180006F9386E792E09F938F930E948E1A80E070
:102190000E94880D61E08AE00E947E0D86E00E9428
:1021A000880D87E0E8C0833009F470C0843009F0FE
:1021B000C8C10E9432086AE070E00E94CE189F9366
:1021C0008F937F936F9385E492E06BC00E94900A97
:1021D0009F938F9381E892E09F938F930E948E1A32
:1021E00061E08FE00E947E0D83E00E94880DA5C112
:1021F0000E94C517813019F40E949C1702C00E94EA
:1022000097178C010E94A30B8530E1F42AE030E09F
:10221000C801B9010E94E2187F936F93C701B90109
:102220000E94CE189F938F937F936F9388E692E0DE
:102230009F938F930E948E1A0FB6F894DEBF0FBE45
:10224000CDBF20C0C80117FF04C088279927801B75
:10225000910B2AE030E0B9010E94E2189F938F931E
:10226000C801B9010E94E2187F936F938BE592E059
:102270009F938F930E948E1A0F900F900F900F9044
:102280000F900F9080E00E94880D5BC1C7016AE04B
:1022900070E00E94CE189F938F937F936F9380E599
:1022A00092E09F938F930E948E1A67C00E94AC0A9F
:1022B0008C010E94BC0A24E630E040E050E00E941D
:1022C000F61869017A017AE0A72EB12CC801B50190
:1022D0000E94CE189F938F937F936F9385E392E034
:1022E0009F938F930E948E1A81E00E94880D82E056
:1022F0000E94880D61E080E00E947E0D0E943608F9
:102300008C01C701B6012AE030E040E050E00E94B5
:10231000F6189F938F937F936F935F934F933F93A1
:102320002F932AE232E03F932F930E948E1A83E08C
:102330000E94880DC801B5010E94CE189F938F930B
:102340007F936F938FE192E09F938F930E948E1AF9
:102350009DC00E94900A182F99830E946706998158
:102360009F931F931F928F9386E092E09F938F938A
:102370000E948E1A83E00E94880D0F900F900F909C
:102380000F900F900F90DDC00E947F0BBC0180E08A
:1023900090E02AE030E040E050E00E94F6189F9381
:1023A0008F937F936F935F934F933F932F93C701C7
:1023B0006AE070E00E94CE189F938F937F936F9393
:1023C00080EE91E09F938F930E948E1A83E00E948B
:1023D000880D88E659C00E949C178C010E949717AF
:1023E0007C01C80117FF04C088279927801B910B27
:1023F0006AE070E00E94E218B82EA92EC701F7FE2D
:1024000004C0882799278E199F096AE0C62ED12C0F
:10241000B6010E94E218782E992E0E943208B60169
:102420000E94CE189F938F937F936F932BEC31E094
:102430003F932F930E948E1A0E94C5170F900F9002
:102440000F900F900F900F90833031F59F927F92F5
:10245000C701B6010E94E2187F936F93AF92BF92BB
:10246000C801B6010E94E2187F936F9383EB91E05D
:102470009F938F930E948E1A80E00E94880D61E0E6
:1024800087E00E947E0D80E00E94880D0FB6F894D0
:10249000DEBF0FBECDBF55C00E94C517823011F4FC
:1024A000B72C87011F92BF92C8016AE070E00E94BA
:1024B000E2187F936F938FE991E09F938F930E942F
:1024C0008E1A80E058CF0E94B20A8C010E94C00A86
:1024D00028EE33E040E050E00E94F6185F934F93FF
:1024E0003F932F93C8016AE070E00E94CE189F933B
:1024F0008F937F936F9381E891E09F938F930E94D6
:102500008E1A83E00E94880D60E08EE00E947E0DAE
:1025100081E00E94880D82E0B7CF82EF94E09F9324
:102520008F930E948E1A61E080E00E947E0D81EE02
:1025300094E09F938F930E948E1A0F900F900F90AC
:102540000F9080915C01863008F44BC3863041F4D3
:1025500080FE06C084E680935C01982D9E7F892EC4
:1025600080915C01873008F43CC387FE03C086E09D
:1025700080935C0181FE04C063E784E60E942D0E17
:1025800082FE04C063E784E60E94380E60E080E0CB
:102590000E947E0DA0905C014A2D50E0FA01E456A5
:1025A000F109E031F10508F01CC3E55CFF4F0C9424
:1025B000371980ED94E09F938F930E948E1A61E00B
:1025C00080E00E947E0D0E94E50A8C010E94E50ACF
:1025D000FC012AE030E0C801B9010E94CE189F93A7
:1025E0008F93CF01B9010E94CE187F936F938DE630
:1025F00091E09F938F930E948E1A0FB6F894DEBFDE
:102600000FBECDBF80FEEDC20E94E50A0AE011E0D8
:1026100020E533EC41E064E00E94430E0E94EF0AA3
:102620002AC085E794E09F938F930E948E1A0E94A0
:10263000F40A1F928F9381E191E09F938F930E9400
:102640007A1A81EE94E09F938F930E948E1A0FB6B0
:10265000F894DEBF0FBECDBF80FEC3C20E94F40A55
:1026600006E111E028E030E040E061E090E00E9407
:10267000430E0E94F70A0F90DF91CF911F910F91A7
:10268000FF90EF90DF90CF90BF90AF909F908F9092
:102690007F900C943A088FEB94E09F938F930E9465
:1026A0008E1A61E080E00E947E0D0E94E00A9F93F6
:1026B0008F938DE591E09F938F930E948E1A0F90D8
:1026C0000F900F900F900F900F9080FE8AC20E9483
:1026D000E00A0EE111E020E533EC40E065E00E9405
:1026E000430E0E94EA0AC7CF8DE994E09F938F932F
:1026F0000E948E1A61E080E00E947E0D0E943F0BD6
:102700001F928F938CE491E09F938F930E948E1A77
:102710000F900F900F900F900F900F9080FE61C25E
:102720000E943F0B07E211E024EF31E040E063E05C
:1027300090E00E94430E0E94420B9DCF8DEB93E0F0
:102740009F938F930E948E1A61E080E00E947E0D1D
:102750000E94740B0F900F90811103C08CEA93E0DC
:1027600002C08BE993E09F938F930E948E1A0F9083
:102770000F9080FE36C20E94740B91E0811190E0B0
:10278000892F0F90DF91CF911F910F91FF90EF90C4
:10279000DF90CF90BF90AF909F908F907F900C94E0
:1027A000770B57E9B52EBA0CCB2CD12CC60101966C
:1027B0009F938F938EEA94E09F938F930E948E1A3B
:1027C0008B2D0E94140B0F900F900F900F9084355B
:1027D000D1F48B2D0E94060B182F8B2D99830E940C
:1027E000FA0A99819F931F931F928F938EE391E032
:1027F0009F938F930E948E1A0F900F900F900F90BF
:102800000F900F9008C02DE231E03F932F930E946C
:102810008E1A0F900F9080FEE4C10E94850D2BE070
:1028200031E03F932F930E948E1A0F900F900E94D9
:10283000D70280FF1AC064E58B2D0E94350B8B2DCB
:102840000E94060B0E94160F4C018B2D0E94FA0A63
:1028500007E211E024EF31E040E063E090E00E9405
:10286000430E7C01B11015C03BC087FFE0CF60E094
:102870008B2D0F90DF91CF911F910F91FF90EF90D3
:10288000DF90CF90BF90AF909F908F907F900C94EF
:10289000350B06E90A0D802F0E94FA0A8E1500F109
:1028A0000E94850D802F0E94FA0A1F928F9331E0BB
:1028B000C31AD108DF92CF92FF24FF92EF921F92AA
:1028C000BF928BEE90E09F938F930E948E1A0FB66B
:1028D000F894DEBF0FBECDBF88EB9BE00F9072C1B6
:1028E00009E211E020E137E240E065E0C4010E9426
:1028F000430EBC018B2D0E942A0B6E2D8B2D0E9446
:10290000200BB9CE82E194E09F938F930E948E1AA0
:1029100061E080E00E947E0D0E94C51781500F90FB
:102920000F90833048F4E82FF0E0EE0FFF1FE55CD6
:10293000FE4F8081918102C081E094E09F938F934C
:102940000E948E1A0F900F9080FE4BC10E94C517F7
:102950008F5F843008F080E00F90DF91CF911F915E
:102960000F91FF90EF90DF90CF90BF90AF909F902E
:102970008F907F900C94B1178AE893E09F938F9388
:102980000E948E1A61E080E00E947E0D0E949A0BE8
:102990001F928F9389ED90E09F938F930E948E1AE0
:1029A0000F900F900F900F900F900F9080FE19C115
:1029B0000E949A0B08E011E02CE330E040E062E076
:1029C00090E00E94430E0F90DF91CF911F910F91E5
:1029D000FF90EF90DF90CF90BF90AF909F908F903F
:1029E0007F900C949D0B89E793E09F938F930E94B7
:1029F0008E1A61E080E00E947E0D0E94900B8C0197
:102A00000E94900BFC012AE030E0C801B9010E944D
:102A1000CE189F938F93CF01B9010E94CE187F9358
:102A20006F9385EC90E09F938F930E948E1A0FB660
:102A3000F894DEBF0FBECDBF80FED3C00E94900BC6
:102A40000CE211E02CE434E041E064E00E94430E2B
:102A50000F90DF91CF911F910F91FF90EF90DF903A
:102A6000CF90BF90AF909F908F907F900C94950BDC
:102A700088E693E09F938F930E948E1A61E080E036
:102A80000E947E0D0E94A30B81500F900F90853005
:102A900048F4E82FF0E0EE0FFF1FEF5CFE4F80815F
:102AA000918102C087E593E09F938F930E948E1AD5
:102AB0000F900F9080FE95C00E94A30B8F5F863011
:102AC00008F080E00F90DF91CF911F910F91FF9060
:102AD000EF90DF90CF90BF90AF909F908F907F90BE
:102AE0000C94A00B8CE894E09F938F930E948E1A15
:102AF00061E080E00E947E0D81EE94E09F938F93D1
:102B00000E948E1A0F900F900F900F9080FE69C058
:102B100083E394E09F938F930E948E1A0F900F90FF
:102B20000E94D70280FD3DC087FFFACF5AC00E94A5
:102B30007F0B8C010E94D905B82EA92E0E94480A4D
:102B4000D82EC92E0E943F0A4C010E943F0A7C01E8
:102B5000C8016AE070E00E94CE189F938F937F9324
:102B60006F93AF92BF92CF92DF92E2E3F0E0C401A5
:102B7000BF010E94CE18880F991F9F938F93C701A2
:102B8000BF010E94CE187F936F938FE990E09F93CF
:102B90008F930E948E1A0FB6F894DEBF0FBECDBF82
:102BA00020C00E9489170E94450B0E94850D89E272
:102BB00094E09F938F930E948E1A88EE93E00F907B
:102BC0000F900F90DF91CF911F910F91FF90EF9099
:102BD000DF90CF90BF90AF909F908F907F900C949C
:102BE000B40B0F90DF91CF911F910F91FF90EF9059
:102BF000DF90CF90BF90AF909F908F907F9008957F
:102C0000CF93DF93CDB7DEB72E970FB6F894DEBF24
:102C10000FBECDBF14B817B81AB8529A5A9880E9A7
:102C200091E00E94B40B0E943C030E9489170E940D
:102C30001F171092C0001092C10084E690E00E941D
:102C4000B40B712C612C55245394EEE04E2E8E0162
:102C50000F5F1F4FF2E03F2EA6E98A2EADE09A2EBD
:102C6000B6E0EB2EB5E0FB2E83E0C82E85E0D82E33
:102C700096E9A92E90E0B92E0E948D17882309F4B9
:102C80006CC010926400529A5A9888EC90E00E94AE
:102C9000B40B8CE00E94D30D0E94850DF801842DA9
:102CA00011928A95E9F73C829A8689861093D5011C
:102CB0000093D40160E08AEF92E00E940F0E61E081
:102CC00082EF92E00E940F0E62E08AEE92E00E9494
:102CD0000F0E63E082EE92E00E940F0E65E082ED3F
:102CE00092E00E940F0E64E08AED92E00E940F0EC7
:102CF00066E08AEC92E00E940F0E67E082EC92E0C0
:102D00000E940F0E0E946E180E9442080E94CE027E
:102D10000E94A1170E94850DFF92EF920E948E1AC9
:102D200061E080E00E947E0DDF92CF920E948E1AB9
:102D300061E082E00E947E0DBF92AF920E948E1AE7
:102D400080ED97E00E94B40B0E94850D0F900F90CC
:102D50000F900F900F900F9002C0772051F00E94BB
:102D6000DD0A882321F00E944A0B712C02C07724CF
:102D700073940E94C8170E94A7030E94470F84E122
:102D800090E00E94B40B0E94DD0A81110EC0809178
:102D90005B0181110AC080915A01811108C00E9413
:102DA0009E18682E50925A0102C010925A018091CA
:102DB0005A01882371F00E949A0B682F660F660FE4
:102DC000862D0E94A118882321F010925A010E949A
:102DD000EC160E94111750CF14B81AB881E085B9CB
:102DE00088E08BB91092B10018B80E9488180E9430
:102DF0003A08D899D89AD999D99ADA99DA9A85E07D
:102E00008093680080E280936D0081E080936B0086
:102E10000E943C0310927A008FEF809364000C9420
:102E2000A60B0E94B00B813049F483B7817F846088
:102E300083BF83B7816083BF8895F3CF089583B73D
:102E40008E7F83BF0C94AB0BCF93C0E0189B0AC05E
:102E50004D9B08C0C83C99F084EF91E00E94C30BE1
:102E6000CF5FF4CFC83C59F01092680010926D000B
:102E700010926B000E941F1781E080935D01CF913B
:102E800008951F920F920FB60F9211242F933F9324
:102E90004F935F936F937F938F939F93AF93BF9362
:102EA000EF93FF930E942417FF91EF91BF91AF9191
:102EB0009F918F917F916F915F914F913F912F9152
:102EC0000F900FBE0F901F9018951F920F920FB684
:102ED0000F9211242F933F934F935F936F937F93A0
:102EE0008F939F93AF93BF93EF93FF930E94241709
:102EF000FF91EF91BF91AF919F918F917F916F91D2
:102F00005F914F913F912F910F900FBE0F901F90A7
:102F1000189581E080935D01089580915D0188237B
:102F200021F010925D0181E0089580E00895809184
:102F30006301909164010895809161019091620113
:102F400008958BE490E00E94921C843018F48093E2
:102F5000600108951092600160E08BE490E00C94B1
:102F6000BC1C80936001682F8BE490E00E94BC1C25
:102F700010925F0110925E01109264011092630141
:102F8000109262011092610108958091600108958C
:102F900080916001882309F469C090915F019111CB
:102FA0002CC0823019F080E00E94D10B60E08CECE4
:102FB0000E941E0C60E084E40E941E0C60E081E030
:102FC0000E94FF0B80916001813019F081E00E9426
:102FD000D10B61E08CEC0E941E0C61E084E40E9445
:102FE0001E0C61E081E00E94FF0B0E949E188093FE
:102FF0005E0181E080935F01089564E080915E014D
:103000000E94A118882391F180916001823021F003
:1030100060E080E00E94FF0B80E00E94D10B60E046
:103020008CEC0E941E0C60E08EEB0E941E0C60E097
:1030300081E691E00E946C0C80916001813021F06A
:1030400061E080E00E94FF0B81E00E94D10B61E013
:103050008CEC0E941E0C61E08EEB0E941E0C61E065
:1030600083E691E00E946C0C10925F0108951F921C
:103070000F920FB60F9211242F933F934F935F93AC
:103080006F937F938F939F93AF93BF93EF93FF9330
:1030900080916000806580936000809166018F5F01
:1030A00080936601843021F40E94410410926601ED
:1030B000809167018F5F80936701FF91EF91BF91CE
:1030C000AF919F918F917F916F915F914F913F91C0
:1030D0002F910F900FBE0F901F901895F89480912C
:1030E0006501813099F02CE088E190E00FB6F8940A
:1030F000A895809360000FBE2093600080916000CF
:1031000080658093600081E08093650178940895E4
:10311000F89488E10FB6F8948093600010926000F4
:103120000FBE84B7877F84BFE0E6F0E080818861CE
:1031300080831082109265017894089580916701D0
:10314000089590916701981758F42FEF30E0281BED
:103150003109290F311D462F50E04217530764F003
:10316000891710F080E00895292F30E0281B3109DD
:1031700070E062177307B4F781E00895DB018F9365
:103180009F930E944C19BF91AF91A29F800D911DFA
:10319000A39F900DB29F900D11240895AA1BBB1BF5
:1031A00051E107C0AA1FBB1FA617B70710F0A61B47
:1031B000B70B881F991F5A95A9F780959095BC0168
:1031C000CD01089597FB072E16F4009407D077FDE4
:1031D00009D00E94CE1807FC05D03EF49095819549
:1031E0009F4F0895709561957F4F0895A1E21A2E23
:1031F000AA1BBB1BFD010DC0AA1FBB1FEE1FFF1F9B
:10320000A217B307E407F50720F0A21BB30BE40BEA
:10321000F50B661F771F881F991F1A9469F7609531
:103220007095809590959B01AC01BD01CF010895EB
:10323000052E97FB1EF400940E942F1957FD07D00E
:103240000E94F61807FC03D04EF40C942F195095E9
:103250004095309521953F4F4F4F5F4F0895909582
:103260008095709561957F4F8F4F9F4F0895EE0F1A
:10327000FF1F0590F491E02D0994A29FB001B39F28
:10328000C001A39F700D811D1124911DB29F700D6F
:10329000811D1124911D08950E943D19A59F900D37
:1032A000B49F900DA49F800D911D11240895DF936C
:1032B000CF931F930F939A9DF02D219FF00D8B9D1F
:1032C000F00D8A9DE02DF10D039FF00D029FE00DA2
:1032D000F11D4E9DE00DF11D5E9DF00D4F9DF00D19
:1032E0007F936F93BF92AF925F934F93D5010E94EC
:1032F0003D198B01AC01D7010E943D19EB01E80F8C
:10330000F91FD6010E94A7192F913F91D6010E9463
:103310003D19C60FD71FE81FF91FAF91BF910E943B
:10332000A7192F913F910E943D19C60FD71FE81F83
:10333000F91FD6010E943D19E60FF71F9801BE0143
:10334000CF0111240F911F91CF91DF9108950E9419
:103350003D19460F571FC81FD91F08F4319608950D
:10336000E894DF93CF93FC01DB010E943D197F932A
:103370006F93E9019A01AC01BF93AF933F932F93F1
:10338000DF010E943D1926F46C1B7D0B820B930B11
:103390009E01EB01FC010E94A719AF91BF912F91F3
:1033A0003F910E94A719BE01CF01F9012F913F91D2
:1033B000CF91DF910895689401C0E8948F929F9215
:1033C000CF93DF930E94E919DF91CF919F908F9067
:1033D000089588249924F401E401B0E49F93AA2776
:1033E0009A158B049C04ED05FE05CF05D007A107B7
:1033F00098F4AD2FDC2FCF2FFE2FE92D982C892E9E
:10340000982F872F762F652F542F432F322F222767
:10341000B85031F7BF9127C01B2EBF91BB27220F99
:10342000331F441F551F661F771F881F991F881C55
:10343000991CEE1FFF1FCC1FDD1FAA1FBB1F8A1484
:103440009B04EC05FD05CE05DF05A007B10748F09C
:103450008A189B08EC09FD09CE09DF09A00BB10B06
:1034600021601A94E1F62EF49401AF01BE01CD0162
:10347000000C08950F93083090F0982F872F762F27
:10348000652F542F432F322F22270850F4CF220FBD
:10349000331F441F551F661F771F881F991F0A95EA
:1034A000B2F70F9108952A0D3B1D4C1D5D1D6E1D39
:1034B0007F1D801F911F08952A193B094C095D0942
:1034C0006E097F09800B910B08950024A7FD0094DD
:1034D0002A173005400550056005700580059005E8
:1034E0000895FB01DC0102C001900D924150504053
:1034F000D8F70895A0E0B0E0E0E8FAE10C94801D70
:10350000FE01359661917191AF018091D401909146
:10351000D5010E94B01AE2E00C949C1DA0E0B0E03E
:10352000E4E9FAE10C947E1DFE01379661917191F8
:1035300004ED11E0D8018D919C91DC0113962C9142
:103540001397286013962C93AF010E94B01AD801EC
:10355000ED91FC912381277F2383E4E00C949A1D55
:10356000ACE0B0E0E6EBFAE10C94701D7C016B017D
:103570008A01FC0117821682838181FFBDC1CE01C1
:1035800001964C01F7019381F60193FD859193FF1C
:1035900081916F01882309F4ABC1853239F493FD21
:1035A000859193FF81916F01853229F4B70190E0F5
:1035B0000E94E01CE7CF512C312C20E02032A0F4F7
:1035C0008B3269F030F4803259F0833269F4206133
:1035D0002CC08D3239F0803339F4216026C022604E
:1035E000246023C0286021C027FD27C030ED380F9C
:1035F0003A3078F426FF06C0FAE05F9E300D1124C1
:10360000532E13C08AE0389E300D1124332E2062D1
:103610000CC08E3221F426FD6BC1206406C08C36AE
:1036200011F4206802C0883641F4F60193FD8591BB
:1036300093FF81916F018111C1CF982F9F7D955488
:10364000933028F40C5F1F4FFFE3F9830DC08336DE
:1036500031F0833771F0833509F05BC022C0F80187
:10366000808189830E5F1F4F44244394512C540161
:1036700015C03801F2E06F0E711CF801A080B18016
:1036800026FF03C0652D70E002C06FEF7FEFC5011C
:103690002C870E94D51C2C0183012C852F77222E8C
:1036A00017C03801F2E06F0E711CF801A080B180E4
:1036B00026FF03C0652D70E002C06FEF7FEFC501EC
:1036C0002C870E94CA1C2C012C852068222E830185
:1036D00023FC1BC0832D90E048165906B0F4B701B7
:1036E00080E290E00E94E01C3A94F4CFF50127FCC0
:1036F000859127FE81915F01B70190E00E94E01C57
:1037000031103A94F1E04F1A51084114510471F705
:10371000E5C0843611F0893639F5F80127FF07C076
:1037200060817181828193810C5F1F4F08C060812D
:103730007181882777FD8095982F0E5F1F4F2F7618
:10374000B22E97FF09C090958095709561957F4F37
:103750008F4F9F4F2068B22E2AE030E0A4010E94D4
:10376000121DA82EA81844C0853729F42F7EB22E2A
:103770002AE030E025C0F22FF97FBF2E8F36C1F04E
:1037800018F4883579F0B4C0803719F0883721F003
:10379000AFC02F2F2061B22EB4FE0DC08B2D8460E0
:1037A000B82E09C024FF0AC09F2F9660B92E06C00C
:1037B00028E030E005C020E130E002C020E132E046
:1037C000F801B7FE07C060817181828193810C5F2F
:1037D0001F4F06C06081718180E090E00E5F1F4F37
:1037E000A4010E94121DA82EA818FB2DFF77BF2E42
:1037F000B6FE0BC02B2D2E7FA51450F4B4FE0AC0CC
:10380000B2FC08C02B2D2E7E05C07A2C2B2D03C0B8
:103810007A2C01C0752C24FF0DC0FE01EA0DF11DAC
:103820008081803311F4297E09C022FF06C0739481
:10383000739404C0822F867809F0739423FD13C01B
:1038400020FF06C05A2C731418F4530C5718732C0D
:10385000731468F4B70180E290E02C870E94E01CAA
:1038600073942C85F5CF731410F4371801C0312CE4
:1038700024FF12C0B70180E390E02C870E94E01C77
:103880002C8522FF17C021FF03C088E590E002C00D
:1038900088E790E0B7010CC0822F867859F021FDAF
:1038A00002C080E201C08BE227FD8DE2B70190E00B
:1038B0000E94E01CA51438F4B70180E390E00E9458
:1038C000E01C5A94F7CFAA94F401EA0DF11D80810F
:1038D000B70190E00E94E01CA110F5CF332009F45D
:1038E00051CEB70180E290E00E94E01C3A94F6CFFE
:1038F000F7018681978102C08FEF9FEF2C96E2E15E
:103900000C948C1DDC01CB01FC01F999FECF06C0A3
:10391000F2BDE1BDF89A319600B40D92415050408D
:10392000B8F70895F999FECF92BD81BDF89A99270D
:1039300080B50895DC01A40FB51F4150504048F0F8
:10394000CB01840F951F2E910E94AB1C415050401B
:10395000D0F70895262FF999FECF92BD81BDF89A30
:10396000019700B4021639F01FBA20BD0FB6F894C3
:10397000FA9AF99A0FBE0895262FF999FECF1FBA29
:1039800092BD81BD20BD0FB6F894FA9AF99A0FBE88
:1039900001960895FC010590615070400110D8F720
:1039A000809590958E0F9F1F0895FC016150704087
:1039B00001900110D8F7809590958E0F9F1F089564
:1039C0000F931F93CF93DF93182F092FEB018B8158
:1039D00081FD03C08FEF9FEF20C082FF10C04E819A
:1039E0005F812C813D81421753077CF4E881F98186
:1039F0009F012F5F3F4F39832883108306C0E885DE
:103A0000F985812F0995892B29F72E813F812F5F19
:103A10003F4F3F832E83812F902FDF91CF911F91B6
:103A20000F910895FA01AA27283051F1203181F130
:103A3000E8946F936E7F6E5F7F4F8F4F9F4FAF4FB6
:103A4000B1E03ED0B4E03CD0670F781F891F9A1FC9
:103A5000A11D680F791F8A1F911DA11D6A0F711D7D
:103A6000811D911DA11D20D009F468943F912AE089
:103A7000269F11243019305D3193DEF6CF01089571
:103A8000462F4770405D4193B3E00FD0C9F7F6CFA2
:103A9000462F4F70405D4A3318F0495D31FD40526A
:103AA000419302D0A9F7EACFB4E0A6959795879500
:103AB00077956795BA95C9F70097610571050895DF
:103AC0009B01AC010A2E069457954795379527958B
:103AD000BA95C9F7620F731F841F951FA01D089523
:103AE0002F923F924F925F926F927F928F929F920E
:103AF000AF92BF92CF92DF92EF92FF920F931F93FC
:103B0000CF93DF93CDB7DEB7CA1BDB0B0FB6F894AC
:103B1000DEBF0FBECDBF09942A88398848885F84EC
:103B20006E847D848C849B84AA84B984C884DF805D
:103B3000EE80FD800C811B81AA81B981CE0FD11D41
:103B40000FB6F894DEBF0FBECDBFED010895F89417
:023B5000FFCFA5
:103B5200FF25752C25752025730063632F6D696E13
:103B6200002025750A0076737472696B2E00696DE8
:103B7200702F3130306D004C006D56006B4F686D08
:103B82000046033503240313030203F003DF03CECD
:023B920003002E
:00000001FF
